:020000040800F2
:1000000050040020212C00081502000817020008E7
:100010001B0200081F020008230200080000000065
:10002000000000000000000000000000270200089F
:1000300029020008000000002B020008C502000889
:100040003B2C00083B2C00083B2C00083B2C0008F4
:100050003B2C00083B2C00083B2C00083B2C0008E4
:100060003B2C00083B2C00083B2C00083B2C0008D4
:100070003B2C00083B2C00083B2C00083B2C0008C4
:100080003B2C00083B2C00083B2C00083B2C0008B4
:100090003B2C00083B2C00083B2C00083B2C0008A4
:1000A0003B2C00083B2C00083B2C00083B2C000894
:1000B0003B2C00083B2C00083B2C00083B2C000884
:1000C0003B2C00083B2C00083B2C00083B2C000874
:1000D0003B2C00083B2C00083B2C00083B2C000864
:1000E000A70700083B2C00083B2C00083B2C00080D
:1000F0003B2C00083B2C00083B2C00083B2C000844
:100100003B2C00083B2C00083B2C00083B2C000833
:100110003B2C00083B2C00083B2C00083B2C000823
:100120003B2C00083B2C00083B2C00083B2C000813
:10013000DFF80CD003F004FB00480047450100083D
:100140005004002000F072F84FF4165000F0E2F86E
:1001500000F034F900F0BAF90021084600F0CFF9B8
:1001600000F086FA00F07CFB00F0FDFB00F08CFC58
:1001700015E000F0E7FA1E48007880B100201C4925
:1001800008701C48006803F040F8044622460B46FD
:1001900019A003F0C7FC1748006800F003FAE8E76D
:1001A00000B58DB005A800F055FC90B902A803ABCE
:1001B00004AA13A1009005A802F044FD032808D169
:1001C000DDE90221049800F0FAF900F078F810490E
:1001D000086000F074F80E49096801F5167188424C
:1001E00003D90021084600F08AF90DB000BD0000D7
:1001F000190000201C000020252E32660A00000095
:10020000374D7425366625366625366600000000B3
:1002100000000020704700BFFEE700BFFEE700BF00
:10022000FEE700BFFEE770477047704730B53348C0
:1002300000684FF47A72B0FBF2F1B1F1807F01D324
:1002400001201DE021F07F40401E4FF0E022506170
:1002500050170F22002807DA13071D0E284B00F055
:100260000F04241F1D5503E013071C0E254B1C54BF
:1002700000BF00204FF0E0229061072010610020B5
:1002800008B100BFFEE730BD1F49086000BF1E492E
:1002900009680029FBD17047014605E0002001E014
:1002A000421CD0B20C28FBDB0A00A1F10101F5D100
:1002B00070470146154800680860002070471348E1
:1002C000006870471048006820B10F480068401E61
:1002D0000D4908600D480068401C0C49086008463C
:1002E00000684FF47A71B0FBF1F201FB120020B903
:1002F00007480068401C0649086070473800002025
:1003000018ED00E000E400E00800002004000020F8
:100310000C00002010B586B00446012144F2040010
:1003200001F092F84FF40070ADF8140003208DF83E
:10033000160018208DF8170005A91E4800F0C8FD0A
:100340004FF48060ADF8140004208DF8170005A963
:10035000184800F0BDFD01940020ADF80800ADF88C
:100360000A00ADF80C00ADF810000C20ADF80E003E
:1003700001A9114802F0A3F901210F4802F02BFA5C
:1003800006B010BD014600BF704770B504460D466B
:1003900000BF4021084802F0F9FA0028F9D0E1B284
:1003A000054802F085FA204670BD01464FF0FF3047
:1003B00070470000000801400038014000B589B0D6
:1003C00001210C2001F040F80121022001F049F840
:1003D000C020ADF8200003208DF8220018208DF8F1
:1003E000230008A9364800F073FD0320ADF8200073
:1003F0008DF8220018208DF8230008A9314800F05C
:1004000067FD4FF47A70ADF818008F20ADF8140036
:100410000020ADF81A001020ADF8160005A92A48F2
:1004200001F0D0FA6020ADF804000120ADF806001C
:100430000020ADF80A00ADF80C0001A9224801F037
:10044000FEFA01A9204801F03CFB01A91E4801F079
:1004500085FB01A91C4801F0CCFB08211A4801F0DA
:100460003DFF0821184801F042FF0821164801F01D
:100470004BFF0821144801F050FF0121124801F000
:10048000FDFE0121104801F0F9FD09B000BD2DE984
:10049000F04104460F4615461E4621460A4802F022
:1004A00085F83946084802F083F82946064802F0E4
:1004B00081F83146044802F07FF8BDE8F081000081
:1004C00000080140000C01400004004008B5012173
:1004D000082000F0B9FF4FF47040ADF80000032091
:1004E0008DF8020010208DF8030069465B4800F08B
:1004F000EFFC4FF4704059491431086008BD2DE9F4
:10050000F04104460D46002C09DB4FF4805053495E
:10051000143108604000091F0860A6B209E04FF4DA
:1005200080504E49103108604000091D086060424B
:1005300086B2002D09DB4FF4804048491431086031
:100540004000091F0860AFB209E04FF48040434902
:10055000103108604000091D0860684287B23B46C0
:10056000324600210846FFF792FFBDE8F08110B542
:100570004FF4E1710846FFF7C2FF10BD10B53849CE
:100580000846FFF7BCFF10BD10B54FF49671484206
:10059000FFF7B5FF10BD10B5314996314842FFF75E
:1005A000AEFF10BD10B504462E49204602F05CFE99
:1005B00002D2FFF7E9FF01E0FFF7D9FF10BD2DE9F7
:1005C000F05F80460E4617462749404602F04AFD36
:1005D000814602F001FE05462349404602F042FDF5
:1005E000814602F0F9FD04461F49304602F03AFD0B
:1005F0008246284602F0DAFD8346514602F0DAFCD4
:10060000814602F0E9FD05461749304602F02AFD11
:100610008246204602F0CAFD8346514602F01CFD88
:10062000814602F0D9FD044600BFB5F57A7F01DDB1
:100630004FF47A7515F57A7F00DA0C4DB4F57A7FB0
:1006400001DD4FF47A7414F57A7F00DA074C214605
:100650002846FFF754FFBDE8F09F0000000C014062
:100660003EFEFFFF0000F0410000A04118FCFFFF2C
:1006700000B587B00121082000F0E6FE4FF480604D
:10068000ADF8180003208DF81A0010208DF81B001B
:1006900006A9694800F01CFC4FF4806066491431DB
:1006A00008604000ADF8180001208DF81A00042001
:1006B0008DF81B0006A9604800F00AFC01210846DD
:1006C00000F0C2FE0B21012000F018FD4FF4006085
:1006D000039000208DF8100008208DF811000120F3
:1006E0008DF8120003A800F013FB0121042000F094
:1006F000B8FE4FF6FE70ADF804004720ADF80000DC
:100700000020ADF80600ADF8020069464B4801F044
:1007100059F90121494801F0B1FC4FF4A06000F003
:100720007BFA28208DF8140002208DF81500032094
:100730008DF8160001208DF8170005A800F071FA59
:1007400007B000BD10B5FFF7BAFD3D490968401A72
:10075000642827D93B480078A0B94FF48060364917
:10076000103108601420FFF797FD4FF48060324984
:1007700014310860FFF7A3FD3349086001203149B7
:1007800008700BE0FFF79BFD2F490968401A40F203
:10079000DC51884202D900202A490870FFF78FFDFA
:1007A0002749086010BD2DE9F0414FF4006000F0CA
:1007B00015FB01283ED12548006800F4006018B3FD
:1007C0001E492431088802F0FAFC0646204A214BD3
:1007D00002F07AFC044602F02BFD1F4908601B481A
:1007E000001F006840F400601849091F0860081DD8
:1007F000006820F40060091D086001201749087096
:1008000000201049087011E000200C4924310880B4
:100810000E48001F006820F400600C49091F0860A2
:10082000081D006840F40060091D08604FF4006076
:1008300000F0E5FABDE8F081000C0140000800403E
:100840002000002018000020140000200C040140AB
:100850009CC420B07268913F1C0000201900002049
:1008600008B50121042000F0EFFD0420ADF80000E0
:1008700010208DF8030003208DF802006946AC4873
:1008800000F026FB0121042000F0DEFD0220ADF87F
:10089000000010208DF8030003208DF80200694647
:1008A000A34800F015FB0421A14800F0BEFB022183
:1008B0009F4800F0BAFB0820ADF8000048208DF8F2
:1008C000030003208DF802006946994800F000FB00
:1008D0000821974800F0A9FB00F05BF90421944837
:1008E00000F0A5FB0221924800F09FFB08BD2DE916
:1008F000F04107460D46164602218D4800F097FB51
:10090000384600F01FF98046002405E0FF2000F083
:1009100019F92855601CC4B2B442F7DB022184489F
:1009200000F083FB4046BDE8F0812DE9F041074629
:100930000C46154602217E4800F079FB384600F04F
:1009400001F98046002605E014F8010B00F0FAF8E2
:10095000701CC6B2AE42F7DB0221754800F065FBA1
:100960004046BDE8F0811FB572A103C9CDE902017F
:10097000052202A93020FFF7D8FF05226946102082
:10098000FFF7B5FF002406E01DF80400A52800D0FD
:1009900003E0601CC4B2052CF6DB00BF052C02D0BE
:1009A000012004B010BD0020FBE770B505460C46E1
:1009B00002215F4800F03BFB284600F0C3F80646E2
:1009C000204600F0BFF80221594800F02EFB3046C7
:1009D00070BD70B504460221554800F028FB204642
:1009E00000F0B0F8FF2000F0ADF8054602215048B5
:1009F00000F01BFB284670BD70B5054604214C482D
:100A000000F015FB20222946A020FFF78EFF0421CD
:100A1000474800F00AFB00BF0821454800F0EBFA08
:100A20000028F9D10720FFF7D4FF044621462720EC
:100A3000FFF7BBFF04F0100028B1FF21E120FFF712
:100A4000B4FF102070BD04F0200008B12020F9E7A9
:100A5000FF20F7E770B504460720FFF7BAFF054609
:100A600029462720FFF7A1FF05F0400050B12022C2
:100A700021466120FFF73BFFFF21E220FFF795FFB2
:100A8000002070BD0120FCE710B50421284800F0CB
:100A9000CEFA052229492A20FFF747FF012121200C
:100AA000FFF783FF01212220FFF77FFF2821252068
:100AB000FFF77BFF20213120FFF777FF0F21262052
:100AC000FFF773FF0F212020FFF76FFF0421184865
:100AD00000F0ABFA10BD10B50421154800F0A7FADC
:100AE000052217493020FFF720FF052213492A204D
:100AF000FFF71BFF01212120FFF757FF01212220D3
:100B0000FFF753FF1A212420FFF74FFF282125204C
:100B1000FFF74BFF0F212620FFF747FF0E21202074
:100B2000FFF743FF0421024800F07FFA10BD0000E8
:100B300000080140A5A5A5A5A50000000B440008DC
:100B40000644000870B50546002405E0601CC4B2E8
:100B5000C82C01DD002070BD02212D4800F027FEC9
:100B60000028F3D029462A4800F0CEFD002405E0F5
:100B7000601CC4B2C82C01DD0020ECE70121244830
:100B800000F015FE0028F3D0214800F0BFFDC0B2F0
:100B9000E1E700B587B00121080300F055FC012111
:100BA000052000F051FCE020ADF8040003208DF892
:100BB000060018208DF8070001A9164800F088F9F2
:100BC0000020ADF808004FF48270ADF80A00002054
:100BD000ADF80C00ADF80E00ADF810004FF4007049
:100BE000ADF812001020ADF814000020ADF816008A
:100BF0000720ADF8180002A9054800F0AFFC01215C
:100C0000034800F050FDFF20FFF79CFF07B000BD38
:100C1000003001400008014031490143314A116070
:100C2000704770B5002100230F22C47804B32D4C07
:100C3000246804F4E064C4F5E064210AC1F104030B
:100C4000CA40447804FA03F184781440214309012E
:100C5000254C0678A155047804F01F050124AC400A
:100C600005786D11AD0005F1E025C5F8004109E0FA
:100C7000047804F01F050124AC401C4D0678761161
:100C800045F8264070BD1A4A0A400243154B1B1F07
:100C90001A60704739B1134A121D12680243114B92
:100CA0001B1D1A6006E00F4A121D126882430D4B8D
:100CB0001B1D1A607047042808D14FF0E021096914
:100CC00041F004014FF0E022116107E04FF0E02114
:100CD000096921F004014FF0E02211617047000022
:100CE0000000FA050CED00E000E400E080E100E027
:100CF00080FFFF1F002044490860091D0860091D8E
:100D00000860091D086041483F4914310860704778
:100D100000213D498279002A3AD00A4612680368C8
:100D20009A430B461A600A1D126803689A430B1D0A
:100D30001A60027911440A6803681A430A60324A49
:100D40000832126803689A432F4B08331A601A1D41
:100D5000126803689A432C4B0C331A604279102AAC
:100D60000ED11A1F126803681A43274B08331A6002
:100D70001A1D126803681A43234B0C331A600DE0E6
:100D80002149427911440A6803681A430A6005E060
:100D9000027911440A6803689A430A607047002187
:100DA000016001710C214171002181717047164968
:100DB000103109680143144A10321160704701462E
:100DC0000020114A143212680A400AB1012000E0E2
:100DD000002070470C49143108607047014600201C
:100DE0000022094B1B6803EA0102074B14331B68FE
:100DF0000B4013B10AB1012000E000207047024906
:100E0000143108607047000000040140FFFF0F002C
:100E100010B50446CC48844208D10121042000F0DA
:100E20002DFB0021042000F029FB46E0C748844246
:100E300008D10121082000F021FB0021082000F04A
:100E40001DFB3AE0C248844208D10121102000F085
:100E500015FB0021102000F011FB2EE0BD4884425C
:100E600008D10121202000F009FB0021202000F002
:100E700005FB22E0B848844208D10121402000F05F
:100E8000FDFA0021402000F0F9FA16E0B348844250
:100E900008D10121802000F0F1FA0021802000F02B
:100EA000EDFA0AE0AE48844207D10121801500F036
:100EB000E5FA0021A01500F0E1FA10BD10B50121FE
:100EC000084600F0DBFA0021012000F0D7FA10BD3F
:100ED0002DE9F041024600250026002000230024D1
:100EE000002791F803C00CF00F0591F803C00CF037
:100EF000100CBCF1000F03D091F802C04CEA0505BC
:100F000091F800C0BCF1000F31D0146800202BE034
:100F10004FF0010C0CFA00F3B1F800C00CEA030624
:100F20009E4220D183004FF00F0C0CFA03F7BC4314
:100F300005FA03FC4CEA040491F803C0BCF1280F45
:100F400006D14FF0010C0CFA00FCC2F814C00AE004
:100F500091F803C0BCF1480F05D14FF0010C0CFA19
:100F600000FCC2F810C0401C0828D1D31460B1F8AE
:100F700000C0BCF1FF0F34DD546800202EE000F10A
:100F8000080C4FF0010808FA0CF3B1F800C00CEAA5
:100F900003069E4221D183004FF00F0C0CFA03F799
:100FA000BC4305FA03FC4CEA040491F803C0BCF10D
:100FB000280F05D100F1080C08FA0CF8C2F81480CB
:100FC00091F803C0BCF1480F07D100F1080C4FF0B5
:100FD000010808FA0CF8C2F81080401C0828CED38B
:100FE0005460BDE8F0814FF6FF71018002218170ED
:100FF0000421C17070470246002093680B400BB17A
:10100000012000E0002070470146886880B27047E8
:1010100002460020D3680B400BB1012000E0002005
:1010200070470146C86880B27047016170474161EE
:1010300070470AB1016100E041617047C1607047CB
:101040004FF480320A4382618161826182698269E0
:10105000704702460020434B18684FF680731840D3
:1010600040EA021008433F4B186070473E49C86190
:101070007047F0B50A46002300240021002500F047
:101080000046B6F1004F02D1364EF16901E0354E0F
:101090007168C0F3034583B200F44016B6F5401FF3
:1010A00008D121F070612F4E766826F070662D4FC2
:1010B0007E6012E000F48016B6F5801F06D103268C
:1010C00006FA05F4A14341F0706106E0460D3601D1
:1010D00003FA06F6B14341F0706122B1460D3601C4
:1010E00003FA06F6314300F00046B6F1004F02D194
:1010F0001C4EF16101E01B4E7160F0BD30B5002265
:101100008B071C0F0F2303FA04F2164B08338C10C5
:1011100053F824309343134C08348D1044F8253091
:1011200023468C1053F824308C07240F00FA04F463
:1011300023430C4C08348D1044F8253030BD0A4947
:10114000DC3108607047000000080140000C0140DD
:10115000001001400014014000180140001C014033
:10116000002001400000014000002042DF480068EC
:1011700040F00100DD49086008464068DC4908404D
:10118000DA49486008460068DA490840D7490860EB
:101190000846006820F4802008600846406820F473
:1011A000FE0048604FF41F0088607047CF4909680F
:1011B00021F48031CD4A11601146096821F4802163
:1011C0001160B0F5803F03D0B0F5802F0ED106E05E
:1011D000C649096841F48031C44A116007E0C34937
:1011E000096841F4A021C14A116000E000BF00BFBE
:1011F000704710B501460022002300204A11012A41
:1012000002D1BA4C236806E0022A02D1B74C236A05
:1012100001E0B64C636A01F01F02012494401C40B7
:101220000CB1012000E0002010BD38B50020009076
:101230000024002500BF3120FFF7DBFF05460098A2
:10124000401C00900098B0F5A06F01D0002DF2D0A6
:101250003120FFF7CEFF08B1012400E00024204632
:1012600038BD01460020A14A106820F0F80040EA8D
:10127000C10010607047A049086070470246002016
:101280009A4B586820F47C1042EA01031843974BAC
:101290005860704798490866704701460020934A95
:1012A000506820F003000843506070478F48406842
:1012B00000F00C007047014600208C4A506820F076
:1012C000F00008435060704701460020874A50688C
:1012D00020F4E06008435060704701460020834AD4
:1012E000506820F4605040EAC1005060704729B156
:1012F0007E4A527A02437D4B5A7204E07B4A527A0C
:1013000082437A4B5A7270477B49D83108607047E4
:1013100001460020754A506820F440400843506060
:1013200070470021714A20321170704A82F82010F3
:10133000012802D004280AD104E001216B4A20329E
:10134000117005E00521694A2032117000E000BFEC
:1013500000BF70476949086070476449096A0143E2
:10136000624A11627047654944390860704730B578
:1013700000210022002400235C4D6D6805F00C0163
:1013800021B1042905D0082923D105E05C4D056071
:1013900022E05B4D05601FE0544D6D6805F470124E
:1013A000524D6D6805F48034022505EB92421CB95C
:1013B000544D554305600BE04C4D6D6805F4003508
:1013C0001DB1504D5543056002E04D4D554305603C
:1013D00002E04B4D056000BF00BF444D6D6805F055
:1013E000F0010909484D6B5C0568DD4045603F4DE3
:1013F0006D6805F4E061090A434D6B5C4568DD40AA
:1014000085603A4D6D6805F46051C90A3E4D6B5CCC
:101410004568DD40C560354D6D6805F44041890B78
:101420003A4D6B5CC568B5FBF3F5056130BD29B17C
:101430002E4A526902432D4B5A6104E02B4A5269ED
:1014400082432A4B5A61704729B1284A9269024364
:10145000264B9A6104E0254A92698243234B9A61A4
:10146000704729B1214AD2690243204BDA6104E076
:101470001E4AD26982431D4BDA61704729B11B4A6B
:10148000D2680243194BDA6004E0184AD2688243FA
:10149000164BDA60704729B1144A12690243134BA4
:1014A0001A6104E0114A12698243104B1A617047B5
:1014B00012494039086070470F49C86470470B49AA
:1014C000C87170470948406A40F080700749486217
:1014D000704701460020054A92680A400AB101207F
:1014E00000E00020704701498872704700100240F8
:1014F0000000FFF8FFFFF6FE000042428004424277
:1015000000127A0000093D00240000203400002071
:1015100010B50446BE48844208D101218014FFF76B
:10152000ADFF0021A014FFF7A9FF16E0B9488442DF
:1015300008D101210014FFF7AEFF00212014FFF7AE
:10154000AAFF0AE0B448844207D10121C013FFF783
:10155000A2FF0021E013FFF79EFF10BD10B500228F
:10156000028802F441520B884C8823438C88234321
:10157000CC8823430C8923434C8923438C89234300
:10158000CC8923431A430280838B4FF2FF7423409C
:1015900083830B8A038210BD2DE9F04F85B0054689
:1015A0000C464FF0000902274FF000084FF0010BE6
:1015B0000026B246A88B4FF240010840A8830220C3
:1015C0002884B5F81C90A068022801D100BF38E03B
:1015D000A08810B94FF0010B01E04FF0020B8D48CD
:1015E000854200D100E000BF6846FFF7C0FEDDF88D
:1015F00000A0E088B0F5007F0AD14FEA1A2000EB86
:1016000080004000A168B0FBF1F0401D86B20BE005
:101610004FEA4B10BAFBF0F000EB80004000A168ED
:10162000B0FBF1F0401D86B20A20B6FBF0F606F0E2
:101630000108A6EB0800C0F34F074FF6FF7000EA61
:101640000828022F01DBFF2F02DD02274FF00008E0
:10165000E08840EA080038432884A088A18908432C
:10166000618808432188084340F4006040EA090982
:10167000A5F81C9005B0BDE8F08F002101804180E5
:101680008180C180018141818181C18107210182E5
:1016900070470021018041808180C18002218160EA
:1016A00000218181704721B1028842F0400202800E
:1016B00004E002884FF6BF731A400280704721B1E0
:1016C000828B42F48062828304E0828B4FF6FF3388
:1016D0001A408283704730B5002400230C11012585
:1016E000A540ABB21AB185881D43858002E085888C
:1016F0009D43858030BD1AB183880B43838002E00F
:1017000083888B4383807047818170470146888935
:1017100070474FF6FF62914204D0028842F4807213
:10172000028004E002884FF6FF631A40028070478F
:1017300021B1828842F00402828004E082884FF660
:10174000FB731A408280704702884FF2FF731A4081
:10175000028002880A4302807047018841F4805168
:101760000180704721B1028842F40052028004E0F7
:1017700002884DF6FF731A4002807047024600202F
:10178000012901D0108B00E0908A70470146088A39
:101790007047B1F5804F04D1028842F48042028044
:1017A00004E002884BF6FF731A400280704702463D
:1017B000002013890B400BB1012000E0002070478E
:1017C000CA4302817047F0B502460020002400237E
:1017D000002501F00F070126BE40B4B20B1101260F
:1017E0009E40B3B2968806EA03051689264016B1D4
:1017F0000DB1012000E00020F0BD10B5002201F085
:101800000F040123A3409AB2D343038110BD00000B
:101810000030014000380040003C004010B5044654
:10182000FE48844208D10121C014FFF727FE0021A1
:10183000E014FFF723FEC4E0B4F1804F08D101218A
:101840000846FFF728FE00210120FFF724FEB8E03C
:10185000F348844208D101210220FFF71CFE002139
:101860000220FFF718FEACE0EE48844208D10121C7
:101870000420FFF710FE00210420FFF70CFEA0E07B
:10188000E948844208D101210820FFF704FE002125
:101890000820FFF700FE94E0E448844208D10121CB
:1018A0001020FFF7F8FD00211020FFF7F4FD88E07D
:1018B000DF48844208D101212020FFF7ECFD002100
:1018C0002020FFF7E8FD7CE0DA48844208D10121BE
:1018D0004014FFF7D3FD00216014FFF7CFFD70E047
:1018E000D548844209D10121C804FFF7C7FD002172
:1018F0004FF40020FFF7C2FD63E0D048844209D1D5
:1019000001210805FFF7BAFD00214FF48010FFF711
:10191000B5FD56E0CA48844209D101214805FFF7C8
:10192000ADFD00214FF40010FFF7A8FD49E0C548C8
:10193000844208D101214020FFF7ADFD0021402065
:10194000FFF7A9FD3DE0C048844208D10121802075
:10195000FFF7A1FD00218020FFF79DFD31E0BB488E
:10196000844208D101218015FFF795FD0021A015C3
:10197000FFF791FD25E0B648844209D10121080412
:10198000FFF77CFD00214FF48030FFF777FD18E072
:10199000B048844209D101214804FFF76FFD0021BE
:1019A0004FF40030FFF76AFD0BE0AB48844208D1EA
:1019B00001218804FFF762FD00214FF48020FFF72A
:1019C0005DFD10BD00220288944B98420ED0994BC9
:1019D00098420BD0B0F1804F08D0914B984205D07F
:1019E000904B984202D0904B984204D14FF68F739F
:1019F0001A404B881A438D4B984207D08C4B984223
:101A000004D04FF6FF431A40CB881A4302808B88DC
:101A100083850B880385814B98420BD0854B984278
:101A200008D08B4B984205D08A4B984202D08A4B03
:101A3000984201D10B7A038601238382704770B5E7
:101A4000002400220023058C4FF6FE7635400584E5
:101A5000028C8388048B4FF68F752C40B51E2C406A
:101A60000D882C43751E2A400D892A434D882A4330
:101A70006A4DA8420BD06F4DA84208D0744DA842C1
:101A800005D0744DA84202D0734DA84213D14FF631
:101A9000F7752A404D892A434FF6FB752A408D88F9
:101AA0002A434FF6FF652B404FF6FF552B408D899B
:101AB0002B43CD892B4383800483CD888586028484
:101AC00070BD70B5002400220023058C4FF6EF7620
:101AD00035400584028C8388048B48F6FF752C40C2
:101AE0004FF6FF452C400D884FF6FF7606EA052598
:101AF0002C434FF6DF752A400D8906EA05152A4367
:101B00004D8806EA05152A43444DA84202D0494DA6
:101B1000A8421DD14FF67F752A404D894FF6FF76BA
:101B200006EA05152A434FF6BF752A408D8806EA56
:101B300005152A434FF6FF352B404FF2FF752B401A
:101B40008D8906EA85052B43CD8906EA85052B4359
:101B500083800483CD880587028470BD70B500241E
:101B600000220023058C4FF6FF6635400584028C69
:101B70008388848B4FF68F752C404FF6FC752C4074
:101B80000D882C434FF6FF552A400D894FF6FF76FE
:101B900006EA05252A434D8806EA05252A431F4DF6
:101BA000A84202D0234DA8421DD14FF2FF752A4012
:101BB0004D894FF6FF7606EA05252A434FF6FF3595
:101BC0002A408D8806EA05252A434EF6FF752B40EC
:101BD0004DF6FF752B408D8906EA05152B43CD89FF
:101BE00006EA05152B4383808483CD88858702848C
:101BF00070BD70B5002200230024058C4EF6FF76E0
:101C000035400584038C8488828B48F6FF752A4012
:101C10004FF6FF452A400D8820E00000002C0140CF
:101C20000004004000080040000C0040001000408C
:101C30000014004000340140004C014000500140BD
:101C40000054014000180040001C004000200040EB
:101C50000040014000440140004801404FF6FF763B
:101C600006EA05252A434DF6FF752B400D8906EA45
:101C700005352B434D8806EA05352B43FA4DA8421E
:101C800002D0FA4DA84208D14BF6FF752C408D8941
:101C90004FF6FF7606EA85152C4384808283CD8833
:101CA000A0F84050038470BD828B4FF2FF331A407E
:101CB0008283828B4FF6FF7303EA01231A438283E8
:101CC0007047F0B50C461546002200210026078C0F
:101CD0004EF6FF7C07EA0C070784828B018C4FF6D7
:101CE000FF7707EA043640F6FF473A404FF6FF77A2
:101CF00007EA05273A434FF6FF7707EA03373A43E7
:101D0000D94FB8420ED0D94FB8420BD0B0F1804F66
:101D100008D0D74FB84205D0D64FB84202D0D64FE0
:101D2000B84206D14DF6FF77394046F48057394323
:101D300005E047F6FF57394044F480573943828322
:101D40000184F0BD828B4FF6F3731A408283828B3D
:101D50000A4382837047F0B50C46154600220021E5
:101D60000026078C4FF6FF6C07EA0C070784828B6E
:101D7000018C4FF6FF7707EA04264FF60C773A40BE
:101D80004FF6FF7707EA03172F433A43B64FB8429F
:101D90000ED0B64FB8420BD0B0F1804F08D0B44F40
:101DA000B84205D0B34FB84202D0B34FB84206D1C3
:101DB0004FF6FF57394046F48077394305E04FF23C
:101DC000FF57394044F48077394382830184F0BD62
:101DD000028B4FF2FF331A400283028B4FF6FF73E0
:101DE00003EA01231A4302837047F0B50C461546F7
:101DF000002200210026078C4FF6EF7C07EA0C0733
:101E00000784028B018C4FF6FF7707EA041640F631
:101E1000FF473A404FF6FF7707EA03373A434FF65A
:101E2000FF7707EA05273A438F4FB8420ED08F4F0E
:101E3000B8420BD0B0F1804F08D08D4FB84205D0DA
:101E40008C4FB84202D08C4FB84206D14FF6DF77A4
:101E5000394046F01007394305E04FF65F773940C7
:101E600044F01007394302830184F0BD028B4FF622
:101E7000F3731A400283028B0A4302837047F0B562
:101E80000C46154600220021068C4FF6FE773E4098
:101E90000684028B018C4FF60C7632407E1C06EADB
:101EA00003162E433243704EB0420ED06F4EB042F6
:101EB0000BD0B0F1804F08D06D4EB04205D06D4EC2
:101EC000B04202D06C4EB04206D14FF6FD763140A2
:101ED00044F00106314305E04FF6F576314044F019
:101EE0000106314302830184F0BD70B505460C46FE
:101EF0005D4885420ED05D4885420BD0B5F1804FDC
:101F000008D05B48854205D05A48854202D05A48DD
:101F1000854200D100E000BF208850B92389A28803
:101F200061882846FFF7ABFFE1882846FFF79EFF50
:101F300025E0208804280AD12389A28861882846C0
:101F4000FFF753FFE1882846FFF742FF17E020889C
:101F500008280AD12389A28861882846FFF7FBFE5A
:101F6000E1882846FFF7EEFE09E02389A288618810
:101F70002846FFF7A6FEE1882846FFF795FE70BDCC
:101F80002DE9F04105460C4600260127608808B976
:101F9000022600E00026A088012801D1022700E0E7
:101FA00001272088A0B92389A28861882846FFF7E5
:101FB00066FFE1882846FFF759FF23893A463146F4
:101FC0002846FFF712FFE1882846FFF701FF13E0DC
:101FD0002389A28861882846FFF707FFE188284601
:101FE000FFF7F6FE23893A4631462846FFF747FFBA
:101FF000E1882846FFF73AFFBDE8F0810A884B8860
:102000001A438B881A43CB881A430B891A434B898E
:102010001A438B891A43A0F8442070474FF6FF718A
:10202000818000210180C1804180017270470021C0
:10203000018041808180C180018141818181C18194
:102040007047002101804180012181800021C180F1
:10205000018170470021018041808180C180018120
:102060004181818170470000002C01400034014013
:102070000004004000080040000C004021B102882C
:1020800042F00102028004E002884FF6FE731A401B
:102090000280704731B1B0F8442042F40042A0F809
:1020A000442005E0B0F84420C2F30E02A0F844201A
:1020B00070471AB183890B43838102E083898B4384
:1020C000838170478182704741EA0203A0F848305B
:1020D00070471AB183890B43838102E083898B4364
:1020E0008381704701894FF6F87211400181704772
:1020F0000A46002101894FF68F731940114301816F
:10210000704730B504460D4629462046FFF7F0FFDC
:10211000208940F00700208130BD2DE9F0410446C0
:102120000D4616461F46602D06D13B46012231461C
:102130002046FFF75AFE05E03B4601223146204685
:10214000FFF79DFE29462046FFF7D2FF208940F089
:1021500007002081BDE8F08130B50C4600210189DF
:10216000C9B24FF6FF7505EA0325154325432943F8
:10217000018130BD2DE9F04105460E4617469846CF
:10218000002443463A4631462846FFF7E5FF2C89AE
:102190004FF6F870044044F007044FF68F70044087
:1021A00044F070042C81BDE8F081F0B504460D4682
:1021B00016461F463B46324629462046FFF7CCFFCF
:1021C000208940F480402081F0BD018582827047E3
:1021D0000A46002101884FF68F7319401143018090
:1021E0007047F0B50C4615461E460021002200231C
:1021F0000189028B038C4FF6F877394021434FF663
:10220000FC473A4040F201173A434FF6DD773B4036
:102210004FF6FF7707EA06172F433B4301810283FE
:102220000384F0BD0A460021018B4FF68F731940DD
:102230001143018370470A460021018B48F6FF7362
:1022400019404FF6FF7303EA0223194301837047D5
:102250000A460021818B4FF68F7319401143818309
:1022600070470A460021818B48F6FF7319404FF6EC
:10227000FF7303EA022319438183704721B1028867
:1022800042F08002028004E002884FF67F731A4019
:102290000280704721B1828842F00402828004E00B
:1022A00082884FF6FB731A408280704721B1828882
:1022B00042F00802828004E082884FF6F7731A40E9
:1022C0008280704721B1828842F00102828004E05E
:1022D00082884FF6FE731A40828070470A460021BA
:1022E000018B4FF6F77319401143018370470A467B
:1022F0000021018B4FF2FF7319404FF6FF7303EA81
:1023000002231943018370470A460021818B4FF64F
:10231000F77319401143818370470A460021818B6E
:102320004FF2FF7319404FF6FF7303EA022319437C
:10233000818370470A460021018B4FF6FB731940D9
:102340001143018370470A460021018B4FF6FF338A
:1023500019404FF6FF7303EA0223194301837047C4
:102360000A460021818B4FF6FB731940114381838C
:1023700070470A460021818B4FF6FF3319404FF614
:10238000FF7303EA02231943818370470A46002141
:10239000018B4FF67F7319401143018370470A4642
:1023A0000021018BC1F30E014FF6FF7303EA0223F4
:1023B0001943018370470A460021818B4FF67F73D2
:1023C00019401143818370470A460021818BC1F374
:1023D0000E014FF6FF7303EA02231943818370470E
:1023E0000A460021018C4FF6FD7319401143018408
:1023F00070470A460021018C4FF6F77319401143CC
:10240000018470470A460021018C4FF6DF731940A2
:102410004FF6FF7303EA02131943018470470A461B
:102420000021018C4FF67F7319404FF6FF7303EACA
:1024300002131943018470470A460021018C4FF6AC
:10244000FF5319404FF6FF7303EA02231943018437
:1024500070470A460021018C4FF2FF7319404FF676
:10246000FF7303EA02231943018470470A460021DF
:10247000018C4DF6FF7319404FF6FF7303EA0233E8
:1024800019430184704730B5002301248C40A3B266
:10249000048C9C430484048C02FA01F5ADB22C43F5
:1024A000048430BD30B5002304248C40A3B2048CD6
:1024B0009C430484048C02FA01F5ADB22C430484DD
:1024C00030BD70B5034600200024184618300125A1
:1024D0008D40ACB21D8CA5431D8409B1082909D1DA
:1024E00000EB6100056825F070050560056815437F
:1024F00005600EE00D1FC5F34E052844056825F460
:10250000E045056005684FF6FF7606EA022635438A
:10251000056070BD21B1028842F00202028004E031
:1025200002884FF6FD731A400280704721B102887D
:1025300042F00402028004E002884FF6FB731A4066
:102540000280704721B1828842F08002828004E0DC
:1025500082884FF67F731A408280704702884FF658
:10256000F7731A40028002880A430280704782880B
:102570004FF68F731A40828082880A4382807047A8
:1025800002894FF6F8731A40028102890A430281D8
:10259000704702894FF67F731A40028102890A430D
:1025A00002817047818470478185704781867047BA
:1025B0000187704781877047A0F8401070470288F4
:1025C0004FF6FF431A40028002880A430280704798
:1025D0000146888E70470146088F70470146888FF4
:1025E00070470146B1F8400070470146888C70473B
:1025F0000146088D704702460020138A0B400BB13C
:10260000012000E000207047CA430282704730B5C5
:102610000246002000230024158A05EA010395895B
:1026200005EA010413B10CB1012000E0002030BD27
:10263000CA4302827047000010B50446FB4884423A
:1026400009D101218803FEF719FF00214FF48040D2
:10265000FEF714FF32E0F648844209D10121480414
:10266000FEF719FF00214FF40030FEF714FF25E0BC
:10267000F048844209D101218804FEF70CFF0021B3
:102680004FF48020FEF707FF18E0EB48844209D1A1
:102690000121C804FEF7FFFE00214FF40020FEF7E1
:1026A000FAFE0BE0E548844208D101210805FEF757
:1026B000F2FE00214FF48010FEF7EDFE10BD2DE973
:1026C000F04786B005460E460024A24600BFA1464C
:1026D0000027B08900B100BF2F462C8A4CF6FF704E
:1026E0000440F08804432C82AC894EF6F310044079
:1026F000B08831890843718908430443AC81AC8AAE
:102700004FF6FF400440B0890443AC8201A8FEF7B5
:102710002EFEC648874202D1DDF810A001E0DDF8A8
:102720000CA0A88900F4004040B10AEBCA0000EBFD
:102730000A1031684900B0FBF1F807E00AEBCA0063
:1027400000EB0A1031688900B0FBF1F86420B8FB97
:10275000F0F004012009642101FB1089A88900F42C
:10276000004040B1322000EBC900B0FBF1F000F0B6
:102770000700044308E0322000EB09106421B0FB9D
:10278000F1F000F00F0004432C8106B0BDE8F087A3
:102790004FF41651016000218180C18001810C211C
:1027A000418100218181704710B502460020108AC6
:1027B0004FF2FF0318400B884C8823438C88234337
:1027C000CC8823431843108210BD00210180418032
:1027D0008180C180704721B1828942F40052828198
:1027E00004E082894DF6FF731A4082817047F0B58C
:1027F0000346002400260025002040F66A17B9424F
:1028000000D100BF1846C1F3421401F01F06012792
:1028100007FA06F5012C01D10C3004E0022C01D19D
:10282000103000E014301AB107682F43076002E04F
:102830000768AF430760F0BD1AB1838A0B438382F8
:1028400002E0838A8B4383827047028A4FF6F073DB
:102850001A400282028A0A430282704782894FF23A
:10286000FF731A40828182890A438281704721B1B5
:10287000828942F00202828104E082894FF6FD7370
:102880001A4082817047028A4FF6DF731A40028233
:10289000028A0A430282704721B1028A42F48042CE
:1028A000028204E0028A4BF6FF731A4002827047EC
:1028B000C1F308028280704701468888C0F308008F
:1028C0007047818941F0010181817047028BD2B24A
:1028D0000283028B42EA012202837047028B02F4D8
:1028E0007F420283028B0A430283704721B1828AAE
:1028F00042F02002828204E0828A4FF6DF731A409F
:102900008282704721B1828A42F01002828204E002
:10291000828A4FF6EF731A408282704721B1828A11
:1029200042F00802828204E0828A4FF6F7731A406E
:102930008282704721B1828942F40042828103E0A1
:102940008289C2F30E028281704721B1828A42F4E9
:102950000062828204E0828A4FF2FF731A40828210
:102960007047828A4FF6FB731A408282828A0A433A
:102970008282704721B1828A42F00202828204E0A0
:10298000828A4FF6FD731A40828270470246002009
:10299000B1F5007F00D100BF13880B400BB10120BF
:1029A00000E00020704701F40072B2F5007F00D112
:1029B00000BFCA430280704770B50246002400235E
:1029C0000025002040F66A16B14200D100BFC1F3D5
:1029D000421501F01F03012606FA03F3012D02D16F
:1029E0009689334006E0022D02D1168A334001E079
:1029F000968A33400C12012606FA04F416883440F5
:102A000013B10CB1012000E0002070BD10B5002210
:102A1000002340F66A14A14200D100BF0A1201242B
:102A20009440A3B2DC43048010BD00000038014094
:102A30000044004000480040004C0040005000406E
:102A40000CB50020019000906C48006840F4803084
:102A50006A49086000BF6948006800F400300090CF
:102A60000198401C0190009818B90198B0F5A06F2A
:102A7000F1D16248006800F4003010B101200090EC
:102A800001E0002000900098012843D15C480068D4
:102A900040F010005A4908600846006820F0030022
:102AA00008600846006840F002000860534840682B
:102AB000524948600846406848600846406840F40B
:102AC000806048600846406820F47C1048600846F2
:102AD000406840F4E81048600846006840F08070A4
:102AE000086000BF4548006800F000700028F9D079
:102AF0004248406820F0030040494860084640686A
:102B000040F00200486000BF3C48406800F00C0004
:102B10000828F9D10CBD10B5FFF792FF10BD10B514
:102B20003648006840F001003449086008464068B3
:102B30003449084031494860084600683249084035
:102B40002E4908600846006820F480200860084686
:102B5000406820F4FE0048604FF41F008860FFF7D3
:102B6000DAFF4FF000602949086010BD10B5002160
:102B700000200022214B5B6803F00C0121B10429E5
:102B800006D0082928D107E0214B224C236027E0FA
:102B90001F4B204C236023E0184B5B6803F470103C
:102BA000164B5B6803F48032022303EB904022B99A
:102BB000194B4343174C23600DE0104B5B6803F443
:102BC000003323B1144B4343124C236003E0104BFA
:102BD0004343104C236003E00D4B0E4C236000BFB9
:102BE00000BF064B5B68C3F303130C4CE15C094B5D
:102BF0001B68CB40074C236010BD00000010024052
:102C0000002002400000FFF8FFFFF6FE08ED00E0A4
:102C100000127A003800002000093D003C0000202E
:102C20000648804706480047FEE7FEE7FEE7FEE766
:102C3000FEE7FEE7FEE7FEE7FEE7FEE71F2B0008E4
:102C4000310100080FB400B58DB010A909900B90A8
:102C500000914FF0FF300A9000200C90054806903C
:102C6000054807906A4609A80F9900F055FB0DB07A
:102C70005DF814FB35330008533300082DE9FF4F8E
:102C8000087881B09946FF2805D0491C2D2804D02A
:102C90000024002308E000230BE00124F9E703EB04
:102CA000830300EB4303491C0878FF28F7D104B1E4
:102CB0005B4200200090147801462D2C01D02B2C73
:102CC00004D1521C2D2C12D000240094002516781B
:102CD000FF2E0ED00A24A0FB04C801FB04810027AC
:102CE00000FB0711521C16EB0C006941EFE70124B1
:102CF000EBE7994450EA01020ED00024AA4D264683
:102D0000DFF8A88200F0E0FC82468B46B9F10000B3
:102D100009DAC9F100071BE001980021C0E90011A0
:102D200005B0BDE8F08F074612E0F80707D022464D
:102D30002B463046414600F0C7F9064688462246F3
:102D40002B461046194600F0BFF904460D467F1089
:102D5000002FEAD1B9F1000F32464346504659469A
:102D600002DA00F042FC01E000F0AEF9009A0AB18C
:102D700081F00041019AC2E90001D1E72DE9FF4F3E
:102D80001F468DB0D7E901464FF0FF382E2045464B
:102D90004FF000090B90B9696D1C0E988847396A8D
:102DA000824688470028F6D1BAF1FF3F0AD024F4C2
:102DB000D064002E11DDBAF12B0F08D0BAF12D0F1F
:102DC0000BD102E0404611B0ABE744F48064B9692E
:102DD0006D1C0E9888478246761E6946600501D5AF
:102DE0002D2000E02B208DF8000001F1010B0DF1EA
:102DF000200809E0B9696D1C0E98884782460F9833
:102E000044F40074761E0560002E02DDBAF1300F26
:102E1000F0D00B998A453ED144F0800406E00F992A
:102E2000681CA9F1010944F400740860B9696D1CBB
:102E3000761E0E98884782463028F0D02BE00B99FA
:102E40008A4505D1200603D444F08004761E18E09C
:102E5000504600F039FF08B30DF11301761E44F41B
:102E600000748B4508D2AAF130000BF8010B200644
:102E700007D5A9F1010003E0200602D409F1010001
:102E80008146A00502D50F99681C0860B9696D1CC0
:102E90000E9888478246002ED1DC53E0002E51DD8B
:102EA000BAF1650F02D0BAF1450F4BD1A00549D553
:102EB000B9696D1C24F44074761E0E9888478246CA
:102EC000002E0CDD2B2804D0BAF12D0F07D144F4CD
:102ED0008074B9696D1C0E9888478246761EE0059D
:102EE00001D52D2100E02B2108F8011BCDF82C8005
:102EF00021E00DF12901761E44F4007488450CD2BE
:102F0000AAF1300010F0FF0088F8000002D10B9900
:102F1000884509D908F1010806E0E00501D52448F3
:102F200001E042F20F708146B9696D1C0E98884726
:102F300082460F980560002E04DD504600F0C4FE66
:102F40000028D6D1F9690E988847FF208BF8000039
:102F500088F800000020069007904B466A4608A9B2
:102F600006A8FFF78BFEA00502D46FF001002AE748
:102F700014F0240F0AD0E00714D1DDE906123868F6
:102F8000031D3B600068C0E900120BE0DDE90601AB
:102F900000F04EF90146E00704D13868021D3A609E
:102FA0000068016028460EE7000024400000F03F62
:102FB000F1D8FFFFF0B480EA0102D40F4200B2EB77
:102FC000410F02D20246084611464A0042D0C30DC4
:102FD000DDB2C1F3C752AD1A202D35DAC1F31601A7
:102FE00041F4000204B15242C5F1200602FA06F192
:102FF0002A411044B3EBD05F23D0C4B1012DA0EB24
:10300000C35009DCF0BC4FF0004202EAC352DBB20D
:1030100000F5000000F0B7B9400000F1807000EB4F
:10302000C350A0F1807040EAD170490009E049081E
:1030300041EAC071A0EBC35000F50000400800EB6E
:10304000C350F0BC00F096B96142012202EB41018D
:10305000001BF6E7F0BC704781F00041AAE780F062
:103060000040A7E780EA010210B502F000434000EB
:1030700022D04A001FD0010E01EB1261C0F35600AE
:10308000C2F3560240F4000042F40002A0FB02200A
:1030900000047F39140400D0401C50EA124001D4CF
:1030A0004000491EC2B20C0604EBD010401C400880
:1030B000802A02D003E0002010BD20F0010000298A
:1030C00000DA0020184310BD2DE9FE4F81EA030409
:1030D00004F0004421F0004100944FF0000B23F075
:1030E000004350EA01045ED052EA03045BD0C3F30C
:1030F0000A54C1F30A552C44A4F2F3340194A0FB02
:103100000254C1F3130141F48011C3F3130343F4D8
:10311000801301FB024400FB034E840A970A44EA31
:10312000815447EA8357A4FB076802958D0A05FB83
:1031300007854FEA932C04FB0C542705029D4FEAA8
:10314000065847EA1637B5EB08056EEB070C870EF5
:10315000920E47EA811742EA8312A7FB0201B6EBFF
:103160000B0164EB00042B0D43EA0C335E1844EBB7
:103170001C50DA465146E7FB0201C5F313044FEA3F
:103180000B3343EA14534FEA0432019C43EA06032B
:10319000A4F10C040294009CCDE900B400F030F9D5
:1031A00003B0BDE8F08F00200146F9E7C10F80EAC7
:1031B000E0700844CA079623002100F0E4B80EB579
:1031C00040F2334102910021CDE900110A460B463D
:1031D00000F016F903B000BD00F0004220F00040FE
:1031E000C10DC0F3160040F400007F2901DA002071
:1031F0007047962903DCC1F19601C84001E0963979
:103200008840002AF4D04042704700F0004230F07D
:1032100000400AD0C10D01F56071C0F3160042EA0A
:103220000151C20840071143704700200146704712
:1032300001F0004330B421F0004150EA010206D011
:103240000A0DA2F56072C1F31301002A02DC30BC42
:1032500000207047440F44EAC104C100E01830BCAC
:1032600000EBC25000F086B8002801DBC0F100403E
:10327000002901DBC1F100418142704730B50B46A6
:10328000014600202022012409E021FA02F59D4296
:1032900005D303FA02F5491B04FA02F52844151E6A
:1032A000A2F10102F1DC30BD2DE9F05F05460020FE
:1032B00092469B4688460646814640241BE02846A7
:1032C00041464746224600F05CFA53465A46C01A29
:1032D000914110D311461846224600F043FA2D1AA8
:1032E00067EB01084F4622460120002100F03AFA20
:1032F00017EB00094E41201EA4F10104DFDC484613
:1033000031462A464346BDE8F09F0000026811445A
:103310001378016018467047D1600449516104492F
:10332000116200211161114600F052BA0D330008FC
:10333000C7370008426842B1016811F8013B23B168
:10334000521EC0E90012184670470121C160881E54
:10335000704742685AB1C368016843B983688B42B9
:1033600005D0491E521CC0E90012002070474FF0E2
:10337000FF3070470029A8BF7047401C490008BFB4
:1033800020F00100704710B4B0FA80FC00FA0CF095
:1033900050EA010404BF10BC704749B1CCF12004CD
:1033A00021FA04F411FA0CF118BF0121214308435A
:1033B000A3EB0C01CB1D4FEA00614FEA102042BF86
:1033C000002010BC704700EBC35010440029A4BF7C
:1033D00010BC7047401C490008BF20F0010010BC21
:1033E000704710B5141E73F1000408DA401C41F157
:1033F000000192185B411A4301D120F0010010BD79
:103400002DE9F04D92469B4611B1B1FA81F202E0EE
:10341000B0FA80F22032904600F0A4F904460F463C
:1034200040EA0A0041EA0B0153465A46084313D0CA
:10343000114653EA010019D0C8F14002504600F08D
:10344000A0F905460E4650465946424600F08AF914
:10345000084305D0012004E020463946BDE8F08D40
:103460000020054346EAE0762C4337430A9863057B
:10347000E40AA0EB08000022FD0A44EA47540A309F
:1034800002D500200146E9E7010510196941DDE98F
:10349000084500196941BDE8F04DA2E72DE9FE4F4E
:1034A000804681EA0300C00F0C46009021F00041E5
:1034B00023F00045B8EB0200A94105D24046214661
:1034C00090461C460B46024623F00040104347D06E
:1034D000270DC7F30A00C3F30A510290401A019066
:1034E00040286BDAC3F3130040F4801B0098924627
:1034F00020B10023D2EB030A63EB0B0B0198594672
:10350000C0F14002504600F02DF906460D465046E7
:103510005946019A00F045F910EB0800614100247A
:1035200087EA115284EAE7731A4340D0009A62B3E3
:10353000019A012A4FEA075215DC001B61EB0201D8
:103540004FF0004202EA0752CDE90042001C41F56B
:10355000801132462B46FFF753FF03B0BDE8F08FD2
:1035600040462146F9E7001B61EB0201001C41F5D2
:10357000801300185B412018A2F5001747EB0301E8
:1035800040EAD570B6196D4111E06D084FEA360674
:1035900045EAC0754FEA0752001B61EB0201001CAF
:1035A00041F5801149084FEA300000195141324677
:1035B0002B4603B0BDE8F04FFFF713BF0098012280
:1035C00040000023D0EB020263EBE0730098214639
:1035D0004FEAE074B8EB000061EB0401E9E783F027
:1035E00000435BE781F0004158E72DE9F04D81EAA7
:1035F000030404F0004B21F0004514464FF0000A8C
:1036000023F0004150EA050220D054EA01021DD007
:10361000C5F30A570246C5F31303C1F31300C1F300
:103620000A5640F4801543F48013A7EB0608101BDC
:10363000D64608F2FD3873EB050002D308F1010805
:1036400001E092185B41B8F1000F03DA0020014657
:10365000BDE8F08D00204FF48011064684460EE050
:10366000171B73EB050705D3121B63EB050306431A
:103670004CEA010C49084FEA300092185B4150EACD
:103680000107EDD152EA030012D082EA040083EA76
:103690000501084305D0101BAB4106D201220023CF
:1036A00006E000224FF0004302E06FF001025310E9
:1036B0001AEB06004CEB085110EB0A0041EB0B0132
:1036C000BDE8F04DFFF78DBE0EB540F233420292D9
:1036D0000022CDE900221346FFF792FE03B000BDA1
:1036E000C1F30A52C1F3130140F2FF3341F48011D8
:1036F0009A4202DA00200146704740F233439A4270
:10370000A2F2334202DC524200F03BB800F02AB889
:1037100030B5041E71F1000404DB4FF00044404258
:1037200064EB0101141E73F1000405DB1C464FF02D
:103730000043524263EB0403994208BF904230BDFC
:10374000064C074D06E0E06840F0010394E80700EE
:1037500098471034AC42F6D3FCF7EEFC5044000816
:1037600070440008202A04DB203A00FA02F100200D
:1037700070479140C2F1200320FA03F319439040AF
:103780007047202A04DB203A21FA02F0002170471A
:1037900021FA02F3D040C2F12002914008431946B9
:1037A0007047202A06DBCB17203A41FA02F043EAA1
:1037B000E07306E041FA02F3D040C2F120029140EA
:1037C000084319467047C0B24FF4F05100F096B963
:1037D0002DE9F34F8BB04FF0000801F10C000C46BF
:1037E0004FF0010B46460DF1080A01906269012174
:1037F0000198904705002DD0252D2CD0216A8847AF
:10380000C0B16269012101989047216A8847002868
:10381000F7D1411E62690198904700E0761CA169CA
:103820000B988847216A88470028F7D1E1690B98EF
:103830008847DBE7A1690B9888470746A84201D172
:10384000761CD3E7E1690B9888477F1C02D1B8F159
:10385000000F6FD046E1002762693D463946019866
:1038600090472A2804D162690121019890470125D7
:10387000DFF884926269012101989047A0F130013C
:103880000A290AD24F45E5DC07EB870100EB410727
:10389000303FDFD445F01005ECE7E90601D46FF0C6
:1038A00000476C280AD04C2814D0682815D06A2804
:1038B0000DD074281CD07A281AD01DE0626901212D
:1038C000019890476C2802D045F0040514E045F0BB
:1038D00002050DE045F020050AE06269012101982A
:1038E0009047682802D045F0080505E045F40065DA
:1038F0006269012101989047C4E9015765283DD0CC
:1039000019DC58287AD00CDC452837D004DC25286F
:1039100026D0412831D131E046282FD047282CD15C
:103920002CE05B2877D0612828D063287CD06428DD
:1039300023D15AE0D0E06F2848D008DC66281DD09B
:1039400067281BD0692821D06E2816D127E070285F
:1039500045D0732868D0752847D078280DD14DE020
:10396000A1690B988847054625283FF469AFE169AE
:103970000B9888476D1C3FF46AAFB3E023466A4654
:103980006FF001000B99FFF7F9F99EE045F0400058
:103990006060A80723464FF0000236D43EE0E807F7
:1039A0007FF447AF2068011D21600068290501D51B
:1039B00006701BE7290701D5068017E7A90703D57D
:1039C000F117C0E9006111E706600FE745F040001C
:1039D0006060A80723464FF0080216D41EE040F6A8
:1039E0000E0125EA0100606016E045F040006060CD
:1039F000A80723464FF00A0207D40FE045F0400025
:103A00006060A80708D5234610226FF001000B99CB
:103A1000AFF3008059E007E0234610226FF0010069
:103A20000B99AFF3008050E04FF000094F464B4632
:103A3000632802D05B2806D040E0E80601D40120CC
:103A4000A06001273AE062690121019890475E2851
:103A500005D14FF0010962694946019890472169F3
:103A600039B900210A46534643F82120491C082948
:103A7000FADBB0B3216969B9C11700EBD162531108
:103A80000AEB830122F01F02821A01200B6890408A
:103A900003430B6062690121019890475D28E8D1DA
:103AA000B9F1000F09D00020514651F82020D2432F
:103AB00041F82020401C0828F7DB02AB2246009783
:103AC0006FF001000B99AFF3008000280CDA401C66
:103AD00008D1BBF1000F05D04FF0FF300DB0BDE8AD
:103AE000F08FFFE74046F9E7E90701D108F1010847
:103AF00006444FF0000B79E6CCCCCC0C7F2801D9E2
:103B0000002208E0064A02EB5002C007127800D1FA
:103B1000120902F00F020120904008407047000097
:103B2000104400080FB4054B10B503A9044A0298CD
:103B300000F0D2F810BC5DF814FB00008B03000805
:103B40001000002002E008C8121F08C1002AFAD1A4
:103B500070477047002001E001C1121F002AFBD10D
:103B6000704700002DE9FF5FDDE90220010DDDF85F
:103B700038B0024318D044F61050A1F2FF3141434F
:103B80000D140F98012820D0A5EB0B00401C5FEA14
:103B9000000A4FF00004474EDFF81C91A046504643
:103BA00016D5CAF1000728E00F98012443A2012886
:103BB00008D0002100980F9BC0E90021C0E9024312
:103BC000BDE8FF9F6FEA0B01F4E7CBF10000DEE7F1
:103BD000074612E0F80707D02246334640464946DA
:103BE000FFF772FA80468946224633461046194648
:103BF000FFF76AFA04460E467F10002FEAD1DDE98E
:103C00000201BAF1000F42464B4602DAFFF75CFAB6
:103C100001E0FFF7EAFC04460E460022284BFFF7BE
:103C200077FD03D84FF0FF30014607E00022254B17
:103C300020463146FFF732FCFFF752FD102409E021
:103C4000002C0ADB0A220023FFF72EFB019B3032F7
:103C50001A55641E50EA0102F2D1641C019AC4F1A3
:103C6000110314440F9A012A03D0012208430DD1F5
:103C70000AE0084304D000204FF0110B0F9080E7BA
:103C8000A3EB0B056D1E0DE05B4504DD4FF000025C
:103C900005F1010504E003DA4FF00002A5F101058A
:103CA000002AECD000980F99C0E90231C0E9004524
:103CB00086E70000000024400000F03F30000000D4
:103CC0000000F0430000E03F30380A2801D2012014
:103CD00070470020704700002DE9FF4F95B09B46CC
:103CE0008946064600250FE2252877D1002427467D
:103CF000F84A0121059400E0044316F8013F203BF7
:103D000001FA03F01042F7D130782A2811D06FF071
:103D10002F033078A0F13002092A16D8059A44F012
:103D2000020402EB820203EB42021044761C05906F
:103D3000EFE759F8042B0592002A03DA504244F4C5
:103D40000054059044F00204761C30782E2816D1D9
:103D500016F8010F44F004042A280DD06FF02F024A
:103D60003078A0F13003092B09D807EB870302EB69
:103D70004303C718761CF3E759F8047B761C3078A8
:103D80006C280FD006DC4C2817D068280DD06A2884
:103D900014D104E0742810D07A280FD10DE044F437
:103DA00000140AE044F4801401E044F440147278F2
:103DB000824202D104F58014761C761C3078662885
:103DC0000BD013DC582877D009DC002875D04528A3
:103DD000F6D04628F4D047281AD19DE118E0632890
:103DE00035D0642879D0652812D195E1702873D038
:103DF00008DC6728F1D069286FD06E280DD06F28B5
:103E000006D1B5E073282CD0752875D0782874D0E9
:103E10005A46179990476D1C75E1C4F30250022869
:103E200009D003280DD0D9F8001004280DD00D605A
:103E300009F1040967E1D9F80010EA17C1E9005255
:103E4000F6E7D9F800100D80F2E70D70F0E719F8E9
:103E5000041B8DF8001000208DF80100EA460120B7
:103E600003E059F804AB4FF0FF3061074FF0000159
:103E700002D40DE008F101018846B9420FDA80450D
:103E8000F8DB1AF808100029F4D108E008F1010164
:103E900088468142FADB1AF808100029F6D1059805
:103EA0005B46A0EB080721463846179A00F094FAC3
:103EB000284400EB080507E04DE029E10DE01AF881
:103EC000010B5A4617999047B8F10108F7D25B46A3
:103ED00021463846179A13E142E00A220092C4F3C1
:103EE00002524FF0000A022A08D059F804CB032AE4
:103EF0004FEAEC710AD00DE029E02AE009F1070150
:103F000021F00702F2E802C1914609E00FFA8CFCA9
:103F10004FEAEC71042A03D14FFA8CFC4FEAEC71A2
:103F2000002907DA0A460021DCF1000C61EB0201EE
:103F30002D2202E0220504D52B228DF80420012237
:103F400003E0E20701D02022F7E7904659E00A217A
:103F500002E010220DE010214FF0000A00910BE06A
:103F600010224FF0000A44F004040827009203E0F6
:103F700008224FF0000A0092C4F30252022A05D030
:103F800059F804CB0021032A08D009E009F1070100
:103F900021F00702F2E802C1914605E01FFA8CFC0D
:103FA000042A01D10CF0FF0C4FF00008220728D59D
:103FB000702806D0009B83F0100353EA0A0305D053
:103FC0000EE040228DF80420012208E05CEA0102A4
:103FD00006D030228DF804208DF80500022290468C
:103FE000009B83F0080353EA0A030AD15CEA01024A
:103FF00001D1620705D530228DF804204FF0010869
:104000007F1E582804D034A003900EA802900DE023
:1040100036A0F9E753466046009AFFF745F9844613
:104020000398825C0298401E029002705CEA0100D4
:10403000F0D1029806A9081A00F1200A600702D5FB
:1040400024F4803400E00127574502DDA7EB0A0085
:1040500000E0002000EB0A01009005984144401A5E
:104060000590E00306D45B462146179A059800F0B8
:10407000B3F90544002706E001A85A46C05D179928
:1040800090476D1C7F1C4745F6DBE0030CD55B4673
:104090002146179A059800F09FF9054404E0302066
:1040A0005A46179990476D1C0099481E00900029A8
:1040B000F5DC08E0029802995A460078491C029102
:1040C000179990476D1CBAF10001AAF1010AF1DCC1
:1040D00065E10000092801003031323334353637CC
:1040E0003839616263646566000000003031323344
:1040F00034353637383941424344454600000000E4
:1041000000F058F90544761C307800287FF4ECADB7
:1041100019B02846BDE8F08F620700D4062709F1E0
:10412000070222F0070CFCE80223E14603F00048F6
:104130005FEA080C02D00FF2702C0DE05FEA045C1D
:1041400002D50FF2682C07E05FEAC47C02D00FF2C0
:10415000602C01E0AFF2700C4FF0FF3823F0004309
:10416000CDF850C065280CD006DC452809D046287B
:104170001DD047283DD13DE0662818D067287ED164
:1041800038E00021112F01DB112000E0781CCDE97F
:10419000000106A90EA8FFF7E5FCDDE90F010E9A64
:1041A00003910021009207F1010A04914DE04FF0C4
:1041B00000400097CDE9011006A90EA8FFF7D2FC38
:1041C000DDE90F0203920E9B11990022DDF80CA08D
:1041D0000093049211B9791C00EB010AB7EB0A00B5
:1041E00004D4C0F1FF3007F1010A0490AAEB0700E4
:1041F000019044E0012F00DA01270021112F01DD99
:10420000112000E03846CDE9000106A90EA8FFF70D
:10421000A9FCDDE90F010E9A03910021049100929F
:10422000BA4621070CD40399514500DA8A46BAF1FF
:10423000010F05DD009AAAF10101515C302908D077
:10424000B84202DA10F1040F06DA0121CDE90110BB
:1042500015E0AAF10101E9E7002805DC0499014411
:104260000491AAEB000102E0411C514500DD8A46A1
:104270000499401A401C01904FF000400290200722
:1042800004D40198504501DBCDF8048000208DF85E
:104290004F0002980DF14F07B0F1004F25D02B20B1
:1042A0000E9002984FF0020800280CDA404202906B
:1042B0002D200E9007E00A210298FEF7DFFF303133
:1042C000029007F8011DB8F10001A8F10108F2DC25
:1042D00002980028EFD1791E0E980870307800F00F
:1042E000200040F0450007F8020D12A8C01B00F1A5
:1042F00007081498007800B1012000EB0A0101982A
:1043000001EBE07105984144401A401E0590E0031E
:1043100006D45B462146179A059800F05DF80544DF
:104320001498007818B15A46179990476D1CE0030D
:1043300024D55B462146179A059800F04DF80544B0
:104340001CE00498002807DBDDE90301884203DD57
:104350000098405C179901E0179930205A46904721
:10436000049805F10105401C04900198401E01903D
:1043700004D12E205A46179990476D1CBAF10001BE
:10438000AAF1010ADDDC05E017F8010B5A4617997E
:1043900090476D1CB8F10001A8F10108F4DC5B4600
:1043A0002146179A0598ABE62D0000002B0000006F
:1043B000200000002DE9F041044600251E46174666
:1043C000880404D405E039462020B0476D1C641EE3
:1043D000F9D52846BDE8F0812DE9F04104460025D5
:1043E0001E469046C80301D5302700E020278804E8
:1043F00004D505E041463846B0476D1C641EF9D52A
:104400002846BDE8F08134431010013443101001F8
:10441000DDDDDDDDDCBBBBDDDDDDDDDDDDDDDDDD11
:104420009888888888888888777777777788888851
:1044300085555556666666666666666666688888E9
:104440008333333222222222222222222228888DE2
:1044500070440008000000204C000000443B0008AD
:10446000BC4400084C00002004040000543B000839
:10447000000000000000000000000000000000003C
:10448000000000000000000000000000000000002C
:104490000000000000000000010203040102030408
:1044A000060708090204060800A24A0400000000EA
:0C44B000000000000102030406070809D8
:0400000508000131BD
:00000001FF
